:020000040800F2
:100000001804002045010008C3020008BF020008D0
:10001000C10200088D0100080D0400080000000066
:10002000000000000000000000000000E5020008E1
:100030008F01000800000000C5020008B903000895
:100040005F0100085F0100085F0100085F01000810
:100050005F0100085F0100085F0100085F01000800
:100060005F0100085F0100085F0100085F010008F0
:100070005F0100085F0100085F0100085F010008E0
:100080005F0100085F0100085F0100085F010008D0
:100090005F0100085F0100085F010008BD01000862
:1000A0005F0100085F0100085F0100085F010008B0
:1000B0005F0100085F0100085F0100085F010008A0
:1000C0005F0100085F0100085F0100085F01000890
:1000D0005F0100085F0100085F0100085F01000880
:1000E000910100085F0100085F0100085F0100083E
:1000F0005F0100085F0100085F0100085F01000860
:100100005F0100085F0100085F0100085F0100084F
:100110005F0100085F0100085F0100085F0100083F
:100120005F0100085F0100085F0100085F0100082F
:10013000DFF80CD000F018F80048004771050008FF
:10014000180400200648804706480047FEE7FEE7FF
:10015000FEE7FEE7FEE7FEE7FEE7FEE7FEE7FEE777
:10016000BD03000831010008064C074D06E0E068B9
:1001700040F0010394E8070098471034AC42F6D3EE
:10018000FFF7DAFF98050008B8050008FEE770479A
:1001900010B54FF40044204600F02AF8002809D09A
:1001A0000548016881F0040101602046BDE8104067
:1001B00000F018B810BD00000C14014010B520204C
:1001C00000F016F8002809D00548016881F4807114
:1001D0000160BDE81040202000F004B810BD000010
:1001E0000C080140014908607047000014040140F8
:1001F00001460020054A12680A40044B14331B686C
:100200000B4202D0002A00D00120704700040140B8
:100210002DE9F0410022CC7804F00F03E40601D56B
:100220008C7823430C784FF00F0714F0FF0F4FF03A
:10023000010C1CD005680CFA02F40E882640A64278
:1002400011D1960007FA06F825EA080503FA06F820
:1002500048EA0505CE78282E02D0482E02D002E0CA
:10026000446100E00461521C082AE4D305600A8856
:10027000FF2A1ED94568002202F108060CFA06F48E
:100280000E882640A64210D1960007FA06F825EA05
:10029000080503FA06F848EA0505CE78282E00D1AD
:1002A0004461CE78482E00D10461521C082AE3D361
:1002B0004560BDE8F0814161704701617047FEE72C
:1002C000FEE7704770470000054A002903D0916996
:1002D00001439161704791698143916170470000CA
:1002E00000100240704700F001B800000CB5002279
:1002F000019200922748016841F4803101604FF477
:10030000A063016801F4003100910199491C019139
:10031000009911B901999942F3D10168890302D575
:100320000121009100E000920099012930D11A4981
:100330000A6842F010020A600A6822F003020A60AA
:100340000A6842F002020A60416841604168416007
:10035000416841F480614160416821F47C11416051
:10036000416841F4E8114160016841F08071016029
:1003700001688901FCD5416821F0030141604168B1
:1003800041F0020141604168C1F381010229FAD1C3
:100390000CBD000000100240002002404FF0E021A0
:1003A000042804D0086920F0040008617047086937
:1003B00040F00400086170477047000010B50F4816
:1003C000016841F00101016041680D4A114041603E
:1003D00001680C4A11400160016821F4802101602C
:1003E000416821F4FE0141604FF41F018160FFF775
:1003F0007AFF05494FF00060086010BD0010024010
:100400000000FFF8FFFFF6FE08ED00E0FEE7000049
:1004100070B505460024124E10213046FFF74BFF01
:10042000682000F08BF8E80704D010213046FFF771
:1004300044FF03E010213046FFF73DFF682000F045
:100440007DF86D08641CE4B2082CECD31021304612
:10045000FFF733FFBDE87040682000F06FB8000080
:100460000008014010B5044602E0FFF7D1FF641C0C
:1004700020780028F9D110BD38B501210420FFF7FC
:1004800023FF1020ADF800008DF8030003208DF845
:100490000200054C69462046FFF7BAFE10212046AF
:1004A000FFF70BFF38BD00000008014002E008C85C
:1004B000121F08C1002AFAD170477047002001E0DE
:1004C00001C1121F002AFBD17047000010B56FF068
:1004D0000400FFF763FF094809490068B0FBF1F029
:1004E0000849C0B2087000EB4002C2EBC0104FF6E2
:1004F000FF7202EAC000488010BD0000000000202A
:1005000000127A00140000200B49498848434FF03C
:10051000E021486100238B61086940F00100086117
:100520000869C20701D0C003FAD5086920F00100AC
:1005300008618B6170470000140000200B490978A6
:1005400048434FF0E021486100238B61086940F087
:10055000010008610869C20701D0C003FAD5086923
:1005600020F0010008618B6170470000140000203A
:10057000FFF782FFFFF7AAFF4FF4FA7403A0FFF71B
:1005800071FF2046FFF7C0FFF8E70000BAC3BAC307
:10059000D1A7CFB00D0A0000B80500080000002068
:1005A00018000000AC040008D00500081800002066
:1005B00000040000BC04000800A24A04000000007F
:1005C0000000000001020304060708090000000003
:0400000508000131BD
:00000001FF
